:020000040800F2
:1000000000280020010A0008890900089109000859
:1000100099090008A1090008A909000800000000CA
:10002000000000000000000000000000B10900080E
:10003000BD09000800000000C9090008D509000832
:10004000490A0008490A0008490A0008490A000844
:10005000490A0008490A0008490A0008490A000834
:10006000490A0008490A0008490A0008490A000824
:10007000490A0008490A0008490A0008490A000814
:10008000490A0008490A0008490A0008490A000804
:10009000490A0008490A0008490A0008490A0008F4
:1000A000490A0008490A0008490A0008490A0008E4
:1000B000E1090008490A000800000000490A000898
:1000C000490A00080000000000000000490A00087A
:1000D00000000000490A0008490A0008000000006A
:1000E000490A0008490A0008490A000800000000FF
:1000F0000000000000000000000000000000000000
:0C01000000000000000000005FF808F1A3
:10010C0010B5054C237833B9044B13B10448AFF345
:10011C0000800123237010BD14000020000000009B
:10012C009C20000808B5034B1BB103490348AFF3EF
:10013C00008008BD00000000180000209C20000872
:10014C0080B582B000AF78607B68002B22D1002292
:10015C000121BD4800F084FF00220221BA4800F0C2
:10016C007FFF00220421B84800F07AFF002208210A
:10017C00B54800F075FF00221021B34800F070FF65
:10018C0000222021B04800F06BFF01224021AE4834
:10019C0000F066FF7B68012B22D101220121AA48C5
:1001AC0000F05EFF00220221A74800F059FF002258
:1001BC000421A54800F054FF01220821A24800F0B8
:1001CC004FFF01221021A04800F04AFF01222021FC
:1001DC009D4800F045FF012240219B4800F040FF64
:1001EC007B68022B22D100220121974800F038FFB6
:1001FC0000220221944800F033FF0122042192488E
:10020C0000F02EFF002208218F4800F029FF002269
:10021C0010218D4800F024FF012220218A4800F093
:10022C001FFF00224021884800F01AFF7B68032B37
:10023C0022D100220121844800F012FF0022022169
:10024C00814800F00DFF002204217F4800F008FFD8
:10025C00002208217C4800F003FF012210217A487B
:10026C0000F0FEFE01222021774800F0F9FE00226A
:10027C004021754800F0F4FE7B68042B22D101224A
:10028C000121714800F0ECFE002202216E4800F0C2
:10029C00E7FE002204216C4800F0E2FE0122082156
:1002AC00694800F0DDFE01221021674800F0D8FEFD
:1002BC0000222021644800F0D3FE00224021624835
:1002CC0000F0CEFE7B68052B22D1002201215E4876
:1002DC0000F0C6FE012202215B4800F0C1FE0022A4
:1002EC000421594800F0BCFE00220821564800F0B9
:1002FC00B7FE01221021544800F0B2FE002220214A
:10030C00514800F0ADFE002240214F4800F0A8FEFD
:10031C007B68062B22D1002201214B4800F0A0FE65
:10032C0001220221484800F09BFE0022042146488D
:10033C0000F096FE00220821434800F091FE0022B6
:10034C001021414800F08CFE002220213E4800F094
:10035C0087FE002240213C4800F082FE7B68072B80
:10036C0022D100220121384800F07AFE002202211D
:10037C00354800F075FE00220421334800F070FE71
:10038C0001220821304800F06BFE012210212E487A
:10039C0000F066FE012220212B4800F061FE0122B4
:1003AC004021294800F05CFE7B68082B22D10022FA
:1003BC000121254800F054FE00220221224800F0C1
:1003CC004FFE00220421204800F04AFE00220821A2
:1003DC001D4800F045FE002210211B4800F040FE95
:1003EC0000222021184800F03BFE00224021164834
:1003FC0000F036FE7B68092B22D100220121124825
:10040C0000F02EFE002202210F4800F029FE0022EF
:10041C0004210D4800F024FE002208210A4800F0B7
:10042C001FFE01221021084800F01AFE0022202194
:10043C00054800F015FE00224021034800F010FE94
:10044C0000BF0837BD4680BD000C014080B582B0AE
:10045C0000AF78607B68032B7AD801A252F823F0A6
:10046C007D040008B5040008ED040008250500080B
:10047C0000224021394800F0F3FD01228021374849
:10048C0000F0EEFD01224FF48071344800F0E8FDDD
:10049C0001224FF40071314800F0E2FD0120FFF71A
:1004AC004FFE01237B6054E0002280212B4800F09A
:1004BC00D7FD01224021294800F0D2FD01224FF442
:1004CC008071264800F0CCFD01224FF400712348C6
:1004DC0000F0C6FD0220FFF733FE02237B6038E0FC
:1004EC00012280211D4800F0BBFD012240211B4848
:1004FC0000F0B6FD00224FF48071184800F0B0FDFA
:10050C0001224FF40071154800F0AAFD0320FFF7FB
:10051C0017FE03237B601CE0012280210F4800F0B2
:10052C009FFD012240210D4800F09AFD01224FF45D
:10053C0080710A4800F094FD00224FF400710748C6
:10054C0000F08EFD0020FFF7FBFD00237B6000E038
:10055C0000BF00BF0837BD4680BD00BF000801408A
:10056C0080B483B000AF786039607B68194A82FB35
:10057C0003129210DB17D31A174A13607968154BC4
:10058C0083FB01239A10CB17D21A13469B001344FA
:10059C005B00CA1A104B5A603B680E4A82FB03126E
:1005AC009210DB17D31A0C4A93603968094B83FB02
:1005BC0001239A10CB17D21A13469B0013445B00ED
:1005CC00CA1A054BDA60044B18460C37BD4680BC82
:1005DC00704700BF676666667800002080B584B0FF
:1005EC0000AF00F02DFA00F043F800F0C9F800F06D
:1005FC007BF81D4801F094F90F23FB600823BB60C6
:10060C0014237B607B6801337B607B683B2B04DDB0
:10061C0000237B60BB680133BB60BB683B2B04DDF4
:10062C0000237B60FB680133FB60FB68172B01DD4B
:10063C000023FB60B968F868FFF792FF38603B68ED
:10064C001B680A4A13603B685B68084A53603B6846
:10065C009B68064A93603B68DB68044AD3604FF49E
:10066C007A7000F04FFACDE73000002088000020AF
:10067C0080B590B000AF07F118032822002118466E
:10068C0001F0DAFC3B1D00221A605A609A60DA60B5
:10069C001A610223BB610123BB621023FB6200239E
:1006AC007B6307F11803184600F00CFD0346002B82
:1006BC0001D000F007F90F237B600023BB600023FF
:1006CC00FB6000233B6100237B613B1D002118462E
:1006DC0000F07AFF0346002B01D000F0F3F800BFC6
:1006EC004037BD4680BD000080B586B000AF07F135
:1006FC00080300221A605A609A60DA603B460022B6
:10070C001A605A601D4B4FF080421A601B4B41F629
:10071C003F725A60194B00229A60184B0922DA601A
:10072C00164B00221A61154B00229A61134801F0F6
:10073C00A7F80346002B01D000F0C4F84FF4805307
:10074C00BB6007F1080319460C4801F025FA034673
:10075C00002B01D000F0B6F800233B6000237B6037
:10076C003B461946054801F0FDFB0346002B01D022
:10077C0000F0A8F800BF1837BD4680BD300000203F
:10078C0080B586B000AF07F1080300221A605A60EA
:10079C009A60DA60214B9B69204A43F00403936111
:1007AC001E4B9B6903F004037B607B681B4B9B69AE
:1007BC001A4A43F008039361184B9B6903F0080332
:1007CC003B603B6800224FF47C71154800F048FCFC
:1007DC0000227F21134800F043FC4FF47C73BB6074
:1007EC000123FB6000233B6102237B6107F10803BB
:1007FC0019460B4800F0B8FA7F23BB600123FB605D
:10080C0000233B6102237B6107F10803194605486D
:10081C0000F0AAFA00BF1837BD4680BD0010024098
:10082C0000080140000C014080B582B000AF786038
:10083C001E4B1B68002B06DC1C4B64221A6010211B
:10084C001B4800F025FC1B4B1B68002B20DC194BB4
:10085C0019221A60184B1B680422934205DB164BB5
:10086C0000221A60154B00221A60134B1B685A1C8D
:10087C0011490A601846FFF7E9FD104B1B685A1C1A
:10088C000E490A600E4A52F823301846FFF7DEFD77
:10089C00064B1B68013B054A1360064B1B68013B6A
:1008AC00044A136000BF0837BD4680BD0400002019
:1008BC000008014000000020980000209C0000204F
:1008CC008800002080B400AF72B600BF00BFFDE707
:1008DC0080B485B000AF154B9B69144A43F00103FB
:1008EC009361124B9B6903F00103BB60BB680F4B18
:1008FC00DB690E4A43F08053D3610C4BDB6903F088
:10090C0080537B607B680A4B5B68FB60FB6823F061
:10091C00E063FB60FB6843F08063FB60044AFB68A8
:10092C00536000BF1437BD4680BC704700100240B6
:10093C000000014080B584B000AF78607B681B6814
:10094C00B3F1804F13D10C4BDB690B4A43F001031D
:10095C00D361094BDB6903F00103FB60FB680022E8
:10096C0000211C2000F0C9F91C2000F0E2F900BFA6
:10097C001037BD4680BD00BF0010024080B400AFF0
:10098C0000BFFDE780B400AF00BFFDE780B400AF4F
:10099C0000BFFDE780B400AF00BFFDE780B400AF3F
:1009AC0000BFFDE780B400AF00BFBD4680BC704700
:1009BC0080B400AF00BFBD4680BC704780B400AFB0
:1009CC0000BFBD4680BC704780B500AF00F07EF81C
:1009DC0000BF80BD80B500AF024800F0EDFF00BF46
:1009EC0080BD00BF3000002080B400AF00BFBD460A
:1009FC0080BC7047FFF7F8FF0B480C490C4A0023EA
:100A0C0002E0D458C4500433C4188C42F9D3094AB8
:100A1C00094C002301E013600432A242FBD301F025
:100A2C0013FBFFF7DBFD70470000002014000020D3
:100A3C00E020000814000020A4000020FEE70000C5
:100A4C0080B500AF084B1B68074A43F010031360D6
:100A5C00032000F047F90F2000F008F8FFF738FFEB
:100A6C000023184680BD00BF0020024080B582B034
:100A7C0000AF7860124B1A68124B1B7819464FF472
:100A8C007A73B3FBF1F3B2FBF3F3184600F05FF9A2
:100A9C000346002B01D001230EE07B680F2B0AD8F4
:100AAC00002279684FF0FF3000F027F9064A7B6886
:100ABC001360002300E0012318460837BD4680BDB3
:100ACC0008000020100000200C00002080B400AFB3
:100ADC00054B1B781A46054B1B681344034A1360DD
:100AEC0000BFBD4680BC704710000020A000002055
:100AFC0080B400AF024B1B681846BD4680BC7047E3
:100B0C00A000002080B584B000AF7860FFF7F0FF44
:100B1C00B8607B68FB60FB68B3F1FF3F05D00A4B04
:100B2C001B781A46FB681344FB6000BFFFF7E0FF1D
:100B3C000246BB68D31AFA689A42F7D800BF00BFC6
:100B4C001037BD4680BD00BF1000002080B485B0BA
:100B5C0000AF78607B6803F00703FB600C4BDB682D
:100B6C00BB60BA684FF6FF031340BB60FB681A0208
:100B7C00BB68134343F0BF6343F40033BB60044AC8
:100B8C00BB68D36000BF1437BD4680BC704700BF44
:100B9C0000ED00E080B400AF044BDB681B0A03F0EF
:100BAC0007031846BD4680BC704700BF00ED00E04F
:100BBC0080B483B000AF0346FB7197F90730002B6C
:100BCC000BDBFB7903F01F02064997F907305B0931
:100BDC00012000FA02F241F8232000BF0C37BD4679
:100BEC0080BC704700E100E080B483B000AF0346E6
:100BFC003960FB7197F90730002B0ADB3B68DAB2DE
:100C0C000C4997F907301201D2B20B4483F8002338
:100C1C000AE03B68DAB20849FB7903F00F03043BA6
:100C2C001201D2B20B441A7600BF0C37BD4680BC01
:100C3C00704700BF00E100E000ED00E080B489B037
:100C4C0000AFF860B9607A60FB6803F00703FB61E2
:100C5C00FB69C3F10703042B28BF0423BB61FB69A9
:100C6C000433062B02D9FB69033B00E000237B61B4
:100C7C004FF0FF32BB6902FA03F3DA43BB681A4048
:100C8C007B699A404FF0FF317B6901FA03F3D9433A
:100C9C007B680B40134318462437BD4680BC704715
:100CAC0080B582B000AF78607B68013BB3F1807F88
:100CBC0001D301230FE00A4A7B68013B53600F21EB
:100CCC004FF0FF30FFF790FF054B00229A60044B6A
:100CDC0007221A60002318460837BD4680BD00BFA6
:100CEC0010E000E080B582B000AF78607868FFF764
:100CFC002DFF00BF0837BD4680BD80B586B000AF64
:100D0C000346B9607A60FB7300237B61FFF742FFF7
:100D1C0078617A68B9687869FFF790FF024697F9AD
:100D2C000F3011461846FFF75FFF00BF1837BD465E
:100D3C0080BD80B582B000AF0346FB7197F90730D8
:100D4C001846FFF735FF00BF0837BD4680BD80B59C
:100D5C0082B000AF78607868FFF7A2FF03461846B0
:100D6C000837BD4680BD000080B48BB000AF786002
:100D7C00396000237B6200233B6261E101227B6AC4
:100D8C0002FA03F3FB613B681B68FA691340BB6111
:100D9C00BA69FB699A4240F050813B685B68974A9C
:100DAC0093425ED0954A934275D8954A934258D057
:100DBC00934A93426FD8934A934252D0914A9342AA
:100DCC0069D8914A93424CD08F4A934263D88F4A48
:100DDC00934246D08D4A93425DD8122B2AD8122BBF
:100DEC0059D801A252F823F06F0E0008490E0008E2
:100DFC005B0E00089D0E0008A30E0008A30E000851
:100E0C00A30E0008A30E0008A30E0008A30E0008F2
:100E1C00A30E0008A30E0008A30E0008A30E0008E2
:100E2C00A30E0008A30E0008A30E0008510E000824
:100E3C00650E0008764A934213D02CE03B68DB68C1
:100E4C003B6229E03B68DB6804333B6224E03B688F
:100E5C00DB6808333B621FE03B68DB680C333B62AA
:100E6C001AE03B689B68002B02D104233B6213E021
:100E7C003B689B68012B05D108233B627B68FA69B0
:100E8C001A6109E008233B627B68FA695A6103E046
:100E9C0000233B6200E000BFBB69FF2B01D87B68DD
:100EAC0001E07B6804337B61BB69FF2B02D87B6A52
:100EBC009B0002E07B6A083B9B003B617B691A68E4
:100ECC000F213B6901FA03F3DB431A40396A3B6992
:100EDC0001FA03F31A437B691A603B685B6803F001
:100EEC008053002B00F0A9804A4B9B69494A43F080
:100EFC0001039361474B9B6903F00103BB60BB6823
:100F0C00454A7B6A9B08023352F82330FB607B6AAC
:100F1C0003F003039B000F2202FA03F3DB43FA688E
:100F2C001340FB607B683D4A93420DD07B683C4A82
:100F3C00934207D07B683B4A934201D1022304E0E1
:100F4C00032302E0012300E000237A6A02F003028B
:100F5C0092009340FA681343FB602F497B6A9B080D
:100F6C000233FA6841F823203B685B6803F4801372
:100F7C00002B06D02C4B9A682B49BB6913438B6012
:100F8C0006E0294B9A68BB69DB43274913408B6009
:100F9C003B685B6803F40013002B06D0224BDA6825
:100FAC002149BB691343CB6006E01F4BDA68BB6970
:100FBC00DB431D491340CB603B685B6803F4003393
:100FCC00002B06D0184B5A681749BB6913434B606A
:100FDC0006E0154B5A68BB69DB43134913404B6061
:100FEC003B685B6803F48033002B1FD00E4B1A68F0
:100FFC000D49BB6913430B601FE000BF00003210AA
:10100C00000031100000221000002110000012100E
:10101C0000001110001002400000014000080140C7
:10102C00000C014000100140000401400B4B1A68F9
:10103C00BB69DB43094913400B607B6A01337B625C
:10104C003B681A687B6A22FA03F3002B7FF496AE96
:10105C0000BF00BF2C37BD4680BC70470004014068
:10106C0080B483B000AF78600B467B8013467B70F6
:10107C007B78002B03D07A887B681A6103E07B882D
:10108C001A047B681A6100BF0C37BD4680BC7047E0
:10109C0080B485B000AF78600B467B807B68DB68E2
:1010AC00FB607A88FB6813401A04FB68D9437B8881
:1010BC000B401A437B681A6100BF1437BD4680BCD5
:1010CC007047000080B586B000AF78607B68002B5D
:1010DC0001D1012372E27B681B6803F00103002B32
:1010EC0000F08780924B5B6803F00C03042B0CD050
:1010FC008F4B5B6803F00C03082B12D18C4B5B6895
:10110C0003F48033B3F5803F0BD1894B1B6803F498
:10111C000033002B6CD07B685B68002B68D10123FB
:10112C004CE27B685B68B3F5803F06D1804B1B6853
:10113C007F4A43F4803313602EE07B685B68002B9E
:10114C000CD17B4B1B687A4A23F480331360784BA9
:10115C001B68774A23F4802313601DE07B685B686F
:10116C00B3F5A02F0CD1724B1B68714A43F480234A
:10117C0013606F4B1B686E4A43F4803313600BE0B3
:10118C006B4B1B686A4A23F480331360684B1B68F3
:10119C00674A23F4802313607B685B68002B13D0B1
:1011AC00FFF7A6FC386108E0FFF7A2FC02463B699A
:1011BC00D31A642B01D9032300E25D4B1B6803F4A3
:1011CC000033002BF0D014E0FFF792FC386108E0FC
:1011DC00FFF78EFC02463B69D31A642B01D903231B
:1011EC00ECE1534B1B6803F40033002BF0D100E00F
:1011FC0000BF7B681B6803F00203002B63D04C4BD1
:10120C005B6803F00C03002B0BD0494B5B6803F0BD
:10121C000C03082B1CD1464B5B6803F48033002B6A
:10122C0016D1434B1B6803F00203002B05D07B68DF
:10123C001B69012B01D00123C0E13D4B1B6823F03E
:10124C00F8027B685B69DB00394913430B603AE0B9
:10125C007B681B69002B20D0364B01221A60FFF7EC
:10126C0047FC386108E0FFF743FC02463B69D31AA0
:10127C00022B01D90323A1E12D4B1B6803F00203C0
:10128C00002BF0D02A4B1B6823F0F8027B685B69BB
:10129C00DB00274913430B6015E0264B00221A6034
:1012AC00FFF726FC386108E0FFF722FC02463B6999
:1012BC00D31A022B01D9032380E11D4B1B6803F0C9
:1012CC000203002BF0D17B681B6803F00803002B92
:1012DC003AD07B689B69002B19D0174B01221A60FE
:1012EC00FFF706FC386108E0FFF702FC02463B6999
:1012FC00D31A022B01D9032360E10D4B5B6A03F077
:10130C000203002BF0D0012000F09CFA1CE00A4BE9
:10131C0000221A60FFF7ECFB38610FE0FFF7E8FBE7
:10132C0002463B69D31A022B08D9032346E100BFBE
:10133C00001002400000424280044242924B5B6A21
:10134C0003F00203002BE9D17B681B6803F0040354
:10135C00002B00F0A6800023FB758B4BDB6903F0A0
:10136C008053002B0DD1884BDB69874A43F08053A7
:10137C00D361854BDB6903F08053BB60BB680123F1
:10138C00FB75824B1B6803F48073002B18D17F4BC9
:10139C001B687E4A43F480731360FFF7A9FB386126
:1013AC0008E0FFF7A5FB02463B69D31A642B01D971
:1013BC00032303E1754B1B6803F48073002BF0D0FF
:1013CC007B68DB68012B06D16F4B1B6A6E4A43F0BE
:1013DC00010313622DE07B68DB68002B0CD16A4B98
:1013EC001B6A694A23F001031362674B1B6A664A46
:1013FC0023F0040313621CE07B68DB68052B0CD123
:10140C00614B1B6A604A43F0040313625E4B1B6A18
:10141C005D4A43F0010313620BE05B4B1B6A5A4AB3
:10142C0023F001031362584B1B6A574A23F0040341
:10143C0013627B68DB68002B15D0FFF759FB386112
:10144C000AE0FFF755FB02463B69D31A41F288329A
:10145C00934201D90323B1E04B4B1B6A03F0020307
:10146C00002BEED014E0FFF743FB38610AE0FFF7E6
:10147C003FFB02463B69D31A41F28832934201D9B1
:10148C0003239BE0404B1B6A03F00203002BEED1BD
:10149C00FB7D012B05D13C4BDB693B4A23F0805390
:1014AC00D3617B68DB69002B00F08780364B5B686F
:1014BC0003F00C03082B61D07B68DB69022B46D14F
:1014CC00334B00221A60FFF713FB386108E0FFF77B
:1014DC000FFB02463B69D31A022B01D903236DE0A3
:1014EC00294B1B6803F00073002BF0D17B681B6A3F
:1014FC00B3F5803F08D1244B5B6823F400327B6842
:10150C009B68214913434B601F4B5B6823F4741297
:10151C007B68196A7B685B6A0B431B4913434B60FE
:10152C001B4B01221A60FFF7E3FA386108E0FFF762
:10153C00DFFA02463B69D31A022B01D903233DE0A3
:10154C00114B1B6803F00073002BF0D035E0104BEF
:10155C0000221A60FFF7CCFA386108E0FFF7C8FAEE
:10156C0002463B69D31A022B01D9032326E0064B12
:10157C001B6803F00073002BF0D11EE07B68DB6965
:10158C00012B07D1012319E000100240007000402C
:10159C00600042420B4B5B68FB60FB6803F48032DB
:1015AC007B681B6A9A4206D1FB6803F470127B6855
:1015BC005B6A9A4201D0012300E0002318461837D9
:1015CC00BD4680BD0010024080B584B000AF78608D
:1015DC0039607B68002B01D10123D0E06A4B1B687A
:1015EC0003F007033A689A4210D9674B1B6823F043
:1015FC00070265493B6813430B60634B1B6803F0A0
:10160C0007033A689A4201D00123B8E07B681B6853
:10161C0003F00203002B20D07B681B6803F004034B
:10162C00002B05D0594B5B68584A43F4E063536078
:10163C007B681B6803F00803002B05D0534B5B68D9
:10164C00524A43F460535360504B5B6823F0F002F2
:10165C007B689B684D4913434B607B681B6803F0A8
:10166C000103002B40D07B685B68012B07D1474BF3
:10167C001B6803F40033002B15D101237FE07B683A
:10168C005B68022B07D1414B1B6803F00073002BE6
:10169C0009D1012373E03D4B1B6803F00203002BBF
:1016AC0001D101236BE0394B5B6823F003027B68AB
:1016BC005B68364913434B60FFF71AFAF8600AE08F
:1016CC00FFF716FA0246FB68D31A41F288329342AE
:1016DC0001D9032353E02D4B5B6803F00C027B68AC
:1016EC005B689B009A42EBD1274B1B6803F0070306
:1016FC003A689A4210D2244B1B6823F00702224905
:10170C003B6813430B60204B1B6803F007033A68DC
:10171C009A4201D0012332E07B681B6803F004037A
:10172C00002B08D0194B5B6823F4E0627B68DB6804
:10173C00164913434B607B681B6803F00803002BAE
:10174C0009D0124B5B6823F460527B681B69DB0089
:10175C000E4913434B6000F021F802460B4B5B68BB
:10176C001B0903F00F030A49CB5C22FA03F3094A65
:10177C001360094B1B681846FFF778F900231846CD
:10178C001037BD4680BD00BF002002400010024053
:10179C00B4200008080000200C00002080B487B0A2
:1017AC0000AF0023FB600023BB6000237B610023A0
:1017BC007B6000233B611E4B5B68FB60FB6803F0A6
:1017CC000C03042B02D0082B03D027E0194B3B61F0
:1017DC0027E0FB689B0C03F00F03174AD35C7B607C
:1017EC00FB6803F48033002B10D0114B5B685B0C4F
:1017FC0003F00103114AD35CBB607B680D4A03FB09
:10180C0002F2BB68B2FBF3F37B6104E07B680C4A29
:10181C0002FB03F37B617B693B6102E0054B3B619F
:10182C0000BF3B6918461C37BD4680BC704700BFE3
:10183C000010024000127A00C4200008D4200008D6
:10184C0000093D0080B485B000AF78600A4B1B687E
:10185C000A4AA2FB03235B0A7A6802FB03F3FB60D0
:10186C0000BFFB685A1EFA60002BF9D100BF00BF05
:10187C001437BD4680BC704708000020D34D621061
:10188C0080B582B000AF78607B68002B01D101235A
:10189C0041E07B6893F83D30DBB2002B06D17B68CE
:1018AC00002283F83C207868FFF744F87B6802221A
:1018BC0083F83D207B681A687B6804331946104610
:1018CC0000F056FA7B68012283F846207B680122DF
:1018DC0083F83E207B68012283F83F207B6801223D
:1018EC0083F840207B68012283F841207B68012229
:1018FC0083F842207B68012283F843207B68012215
:10190C0083F844207B68012283F845207B68012200
:10191C0083F83D20002318460837BD4680BD0000E3
:10192C0080B485B000AF78607B6893F83D30DBB253
:10193C00012B01D0012335E07B68022283F83D2086
:10194C007B681B68DA687B681B6842F00102DA600E
:10195C007B681B68164A934209D07B681B68B3F1FD
:10196C00804F04D07B681B68124A934211D17B686C
:10197C001B689B6803F00703FB60FB68062B10D009
:10198C007B681B681A687B681B6842F001021A604E
:10199C0007E07B681B681A687B681B6842F00102D1
:1019AC001A60002318461437BD4680BC704700BF30
:1019BC00002C01400004004080B584B000AF78607A
:1019CC007B681B68DB68FB607B681B681B69BB6002
:1019DC00BB6803F00203002B20D0FB6803F002036A
:1019EC00002B1BD07B681B686FF002021A617B68AE
:1019FC0001221A777B681B689B6903F00303002B99
:101A0C0003D0786800F098F905E0786800F08BF95D
:101A1C00786800F09AF97B6800221A77BB6803F0AB
:101A2C000403002B20D0FB6803F00403002B1BD015
:101A3C007B681B686FF004021A617B6802221A77BC
:101A4C007B681B689B6903F44073002B03D0786898
:101A5C0000F072F905E0786800F065F9786800F03C
:101A6C0074F97B6800221A77BB6803F00803002B1B
:101A7C0020D0FB6803F00803002B1BD07B681B688D
:101A8C006FF008021A617B6804221A777B681B6866
:101A9C00DB6903F00303002B03D0786800F04CF9EA
:101AAC0005E0786800F03FF9786800F04EF97B6843
:101ABC0000221A77BB6803F01003002B20D0FB68C0
:101ACC0003F01003002B1BD07B681B686FF0100217
:101ADC001A617B6808221A777B681B68DB6903F440
:101AEC004073002B03D0786800F026F905E0786885
:101AFC0000F019F9786800F028F97B6800221A7751
:101B0C00BB6803F00103002B0CD0FB6803F001034E
:101B1C00002B07D07B681B686FF001021A61786894
:101B2C00FEF782FEBB6803F08003002B0CD0FB6831
:101B3C0003F08003002B07D07B681B686FF08002DA
:101B4C001A61786800F06FFABB6803F04003002B51
:101B5C000CD0FB6803F04003002B07D07B681B689C
:101B6C006FF040021A61786800F0F8F8BB6803F077
:101B7C002003002B0CD0FB6803F02003002B07D0B4
:101B8C007B681B686FF020021A61786800F042FADB
:101B9C0000BF1037BD4680BD80B584B000AF786003
:101BAC0039600023FB737B6893F83C30012B01D127
:101BBC000223B4E07B68012283F83C207B6802227C
:101BCC0083F83D207B681B689B68BB60BB6823F077
:101BDC007703BB60BB6823F47F43BB607B681B68E7
:101BEC00BA689A603B681B68B3F5005F3ED0B3F5EA
:101BFC00005F00F28780B3F5805F00F08680B3F55C
:101C0C00805F7FD8702B1AD0702B7BD8602B50D074
:101C1C00602B77D8502B3CD0502B73D8402B58D0FE
:101C2C00402B6FD8302B64D0302B6BD8202B60D04E
:101C3C00202B67D8002B5CD0102B5AD062E07B682D
:101C4C0018683B6899683B685A683B68DB6800F029
:101C5C006AF97B681B689B68BB60BB6843F07703C1
:101C6C00BB607B681B68BA689A604FE07B68186839
:101C7C003B6899683B685A683B68DB6800F053F92D
:101C8C007B681B689A687B681B6842F480429A6088
:101C9C003CE07B6818683B6859683B68DB681A460F
:101CAC0000F0CAF87B681B685021184600F021F937
:101CBC002CE07B6818683B6859683B68DB681A46FF
:101CCC0000F0E8F87B681B686021184600F011F9F9
:101CDC001CE07B6818683B6859683B68DB681A46EF
:101CEC0000F0AAF87B681B684021184600F001F947
:101CFC000CE07B681A683B681B681946104600F0BC
:101D0C00F8F803E00123FB7300E000BF7B680122BD
:101D1C0083F83D207B68002283F83C20FB7B18462F
:101D2C001037BD4680BD80B483B000AF786000BF73
:101D3C000C37BD4680BC704780B483B000AF786070
:101D4C0000BF0C37BD4680BC704780B483B000AF79
:101D5C00786000BF0C37BD4680BC704780B483B040
:101D6C0000AF786000BF0C37BD4680BC70470000E8
:101D7C0080B485B000AF786039607B681B68FB600D
:101D8C007B682B4A934207D07B68B3F1804F03D01A
:101D9C007B68284A934208D1FB6823F07003FB60F0
:101DAC003B685B68FA681343FB607B68204A93428C
:101DBC0007D07B68B3F1804F03D07B681D4A9342F8
:101DCC0008D1FB6823F44073FB603B68DB68FA685E
:101DDC001343FB60FB6823F080023B685B69134391
:101DEC00FB607B68FA681A603B689A687B68DA6209
:101DFC003B681A687B689A627B680D4A934203D1F0
:101E0C003B681A697B681A637B6801225A617B689C
:101E1C001B6903F00103002B05D07B681B6923F0C1
:101E2C0001027B681A6100BF1437BD4680BC704745
:101E3C00002C01400004004080B487B000AFF86073
:101E4C00B9607A60FB681B6A7B61FB681B6A23F0D4
:101E5C000102FB681A62FB689B693B613B6923F0DA
:101E6C00F0033B617B681B013A6913433B617B695F
:101E7C0023F00A037B617A69BB6813437B61FB68BF
:101E8C003A699A61FB687A691A6200BF1C37BD46D1
:101E9C0080BC704780B487B000AFF860B9607A60DE
:101EAC00FB681B6A7B61FB681B6A23F01002FB68F2
:101EBC001A62FB689B693B613B6923F470433B618D
:101ECC007B681B033A6913433B617B6923F0A003D6
:101EDC007B61BB681B017A6913437B61FB683A69C0
:101EEC009A61FB687A691A6200BF1C37BD4680BCD8
:101EFC00704780B485B000AF786039607B689B68B0
:101F0C00FB60FB6823F07003FB603A68FB681343CB
:101F1C0043F00703FB607B68FA689A6000BF1437D4
:101F2C00BD4680BC704780B487B000AFF860B96024
:101F3C007A603B60FB689B687B617B6923F47F4321
:101F4C007B613B681A027B681A43BB6813437A694E
:101F5C0013437B61FB687A699A6000BF1C37BD46EE
:101F6C0080BC704780B485B000AF786039607B6806
:101F7C0093F83C30012B01D1022341E07B68012214
:101F8C0083F83C207B68022283F83D207B681B6829
:101F9C005B68FB607B681B689B68BB60FB6823F01D
:101FAC007003FB603B681B68FA681343FB607B683B
:101FBC001B68FA685A607B681B68144A934209D004
:101FCC007B681B68B3F1804F04D07B681B68104A98
:101FDC0093420CD1BB6823F08003BB603B685B6809
:101FEC00BA681343BB607B681B68BA689A607B68ED
:101FFC00012283F83D207B68002283F83C200023DB
:10200C0018461437BD4680BC704700BF002C0140F9
:10201C000004004080B483B000AF786000BF0C3780
:10202C00BD4680BC704780B483B000AF786000BF01
:10203C000C37BD4680BC704703460244934200D126
:10204C00704703F8011BF9E770B500260C4D0D4CD9
:10205C00641BA410A64209D100F01AF800260A4D00
:10206C000A4C641BA410A64205D170BD55F8043B64
:10207C0098470136EEE755F8043B98470136F2E7EE
:10208C00D8200008D8200008D8200008DC20000840
:10209C00F8B500BFF8BC08BC9E467047F8B500BF49
:0820AC00F8BC08BC9E46704719
:1020B40000000000000000000102030406070809F4
:1020C40002030405060708090A0B0C0D0E0F101075
:0420D4000102000005
:0420D80031010008CA
:0420DC000D010008EA
:1020E000190000006400000000127A0010000000D7
:0420F00001000000EB
:0400000508000A01E4
:00000001FF
